:100000000C9428020C9445020C9445020C94450271
:100010000C9445020C9445020C9445020C94450244
:100020000C9445020C9445020C941B280C94D72781
:100030000C9418290C9445020C9445020C9445022A
:100040000C9445020C9445020C9445020C94450214
:100050000C9445020C94F4280C9445020C9445022F
:100060000C9445020C9445020C9445020C944502F4
:100070000C9445020C9445020C9445020C944502E4
:100080000C9445020C9445020C9445020C944502D4
:100090000C9445020C9445020C9445020C944502C4
:1000A0000C9445020C9445020C944502FD377A5895
:1000B0005A000004E6D6B4460200210116000000F2
:1000C000742FE5A3E000EC009C5D003D888986D399
:1000D000DC0AE842C324925842588FD8E75CA0D289
:1000E000616E26E888019A676C7887BC8D3709E9CC
:1000F000ECD3F1A53C79858BB59E1F67DE1F905F21
:10010000FD837D771B31043B4BF4B72D94FD13DD4C
:100110003BD32C19EA7935F3789475D1EB59EA433E
:1001200050A454FF79402BCD196AAC288915DA6C9C
:100130003F9B74492ADC4F299D03AC879D519D1A32
:10014000067E7E1B21C9628516F7D29CF277E237C4
:10015000060A7222A03124AA5D6A66E5A11DCB6160
:1001600021C6C4FF1F4400000E55506344D45E8F67
:100170000001B801ED010000A79F7B2DB1C467FB12
:10018000020000000004595A2F5C315C0700540043
:100190005C005D005E005500335C345C0900560075
:1001A0006200630058005700010001007203DE0B7B
:1001B000100C0000020002006E03DE0B100C0000A9
:1001C000030001007303DE0B100C000004000200AA
:1001D0005803DE0B100C6507050001007403DE0BED
:1001E000100C0000060002005A03DE0B100C000089
:1001F000070002007003DE0B100C00000800010075
:100200007503DE0B100C0000120002007603DE0BFB
:10021000100C0000130002007803DE0B100C00002D
:10022000140001007A03DE0B100C00001500000022
:100230000000EB068D1200000660FF0961A10109B4
:1002400062150026FF0095207508810209631500DC
:1002500026FF00952075089102C005010906A1013D
:10026000050719E029E715002501950875018102A8
:100270009501750881010507190029FF150026FF62
:100280000095067508810005081901290595057571
:10029000019102950175039101C00902A6000401B4
:1002A00000A0FA0904000001030101000921110165
:1002B0000001224000070581030800010904010034
:1002C000020300000009211101000122220007059C
:1002D000820320000107050303200001080B02022E
:1002E00001010000090402000001010000092401CD
:1002F00000010900010309040300020103000007D3
:10030000240100014100062402010100062402022A
:10031000020009240301030102010009240302046D
:100320000101010009050502400005000005250145
:1003300001010905840240000500000525010103B3
:100340001201000200000008EDFE000000010102A1
:1003500003011C037600690061006C003A0066002E
:100360003600340063003200620033006300000096
:10037000120370006500640061006C007000610091
:100380006C0000001603670072006F006F006F00C2
:100390007600650062006F0062000000040309043B
:1003A000000000000000000000000000000000004D
:1003B000000000000000000000000000000000003D
:1003C000000000007E0F00D4FFFFFFC70000007890
:1003D00000000000000000002A2B280000000000A0
:1003E00000000000000000000000002900000000E4
:1003F0002C1E3420212224342627252E362D373852
:10040000271E1F202122232425263333362E37385A
:100410001F0405060708090A0B0C0D0E0F10111218
:10042000131415161718191A1B1C1D2F3130232DE4
:10043000350405060708090A0B0C0D0E0F101112E2
:10044000131415161718191A1B1C1D2F3130354C93
:1004500011241FBECFEFDAE0DEBFCDBF11E0A0E078
:10046000B1E0E0E1F3E602C005900D92A834B107D7
:10047000D9F725E0A8E4B1E001C01D92AD34B20780
:10048000E1F70E943F290C945B310C940000A3E03B
:10049000B0E0EDE4F2E00C94AE307C01162FD42EE7
:1004A000C22E80918304843071F5E0917804F0913C
:1004B00079043097C1F1C701019763E070E00E94B1
:1004C0006F30CB01880F991F860F971F19834A83BE
:1004D000CB824E2D481B9E012F5F3F4FBC018EE506
:1004E00094E00995E0917C04F0917D04309739F017
:1004F0000C2D2D2D412FB7018EE594E00995239603
:10050000E8E00C94CA3082E0E816F10409F45AC01D
:1005100083E0E816F104A9F081E0E816F10409F49B
:1005200084C0F12CE12CE0917A04F0917B043097A7
:10053000C9F20C2D2D2D412FB7018EE594E00995C0
:10054000D1CF862F807F803A11F188F48038D1F0A6
:10055000E0916204F0916304803929F7309719F330
:10056000123F49F12C2D4D2D612F6F7027C0803E19
:1005700099F0803FB1F0E0916004F0916104803B1C
:1005800091F6ECCFE0916404F0916504E7CFE0913F
:100590006604F0916704E2CFE0916804F091690489
:1005A000DDCF623F09F0BFCFE0916A04F0916B04A8
:1005B000309709F4B8CF2C2D4D2D62EF8EE594E0E5
:1005C000099590CF862F807F803DB9F0803FD1F094
:1005D000E0916C04F0916D04803C09F0A4CF309759
:1005E00009F4A1CF812F8D7F4D2D612F6F70813F39
:1005F000C9F08EE594E0099575CFE0916E04F09115
:100600006F04EDCFE0917004F0917104633F39F015
:10061000613F09F088CFE0917204F0917304309744
:1006200009F481CF4D2D612FE4CFE0917404F09156
:100630007504683F38F4663F09F075CFE0917604A1
:10064000F0917704309709F46ECF612F8EE594E036
:10065000099548CFE8EDF0E080818E7F808310928D
:10066000E2001092DA001092E100A0EEB0E08C916E
:1006700081608C9380818F77808319BCA7EDB0E077
:100680008C918E7F8C9380818F7E80831092470423
:1006900008952091E4003091E50095E6A9012091AC
:1006A000EC00822F817020FF06C08091E80080FF5F
:1006B00006C080E008952091E80022FD1AC08091D4
:1006C0005404882389F0853089F08091EB0085FD02
:1006D0000FC02091E4003091E50042175307F9F272
:1006E0009150E1F684E0089582E0089583E0089552
:1006F00081E00895EF92FF920F931F93CF937C01B7
:100700008B010E944903C82F811117C08091E80016
:1007100085FD0BC08091E8008E778093E8000E94F1
:100720004903882399F3C82F08C0F70181917F01FD
:100730008093F1000150110949F78C2FCF911F913F
:100740000F91FF90EF900895EF92FF920F931F93F8
:10075000CF937C018B010E944903C82F811117C0E0
:100760008091E80085FD0BC08091E8008B77809335
:10077000E8000E944903882399F3C82F08C080919C
:10078000F100F70181937F010150110949F78C2F86
:10079000CF911F910F91FF90EF9008958091560493
:1007A00087FF13C08091E80082FF06C08091E800B7
:1007B0008B778093E80004C0809154048111F2CFBC
:1007C0000895809154048823D9F38091E80080FF34
:1007D000F8CF8091E8008E77ECCF982F9093E900C6
:1007E000242F762F50E0891731F07091EC00209182
:1007F000ED005091F00021FD07C09F5F973071F729
:100800008093E90081E008953091EB003E7F3093C2
:10081000EB003091ED003D7F3093ED003091EB0027
:1008200031603093EB007093EC002093ED00509317
:10083000F0002091EE0027FDE0CF80E00895B0E0C9
:10084000A0E0E5E2F4E00C94AE30C8EDD0E08881A1
:100850008F7E8883E7EDF0E080818160808384E093
:1008600082BF81E08093470488818E7F888302EE77
:1008700010E0F80110821092DA0081EEC82ED12C1F
:10088000F601108288818F778883888180688883C9
:1008900088818F7D888319BC10925404109255046E
:1008A000109253041092520490EEE92EF12CF701AD
:1008B00080818B7F808388818160888342E060E0D3
:1008C00080E00E94ED03F60180818E7F8083F80135
:1008D000808181608083808188608083F70180814E
:1008E0008E7F8083888180618883CDB7DEB7E8E022
:1008F0000C94CA30FC0180915C0490915D048617D1
:100900009707A0F06115710529F49091E8009E7792
:100910009093E80090E06115710551F4911108C0C1
:100920008091E80082FF34C080E00895BC01F2CFDE
:10093000809154048823C1F18530C1F18091E80091
:1009400083FD30C08091E80082FDEACF8091E8000D
:1009500080FFE1CF8091F3002091F200382F6115E4
:10096000710519F02830310558F091E02830310533
:1009700009F090E02091E8002E772093E800CBCF9B
:1009800081918093F100615071092F5F3F4FE7CF54
:1009900080915404882341F0853041F08091E80033
:1009A00083FFBECF81E0089582E0089583E008953B
:1009B000089508950895089580914904089508952B
:1009C0000895982F907F903BE9F040F49039D1F052
:1009D000903AC1F09038B1F080E00895903D19F060
:1009E00020F4903CC9F782E00895903E59F0903F82
:1009F00099F7815F8F3080F7E82FF0E0E85CFE4FD9
:100A00008081089583E00895A7E0B0E0EAE0F5E092
:100A10000C94B1308C0108511F4F809154048430E4
:100A200009F06CC0809119018F708093E90080916A
:100A3000E80082FF63C08091E80085FF5FC050E05E
:100A400040E064E070E0CE0101960E94A403809132
:100A5000E80085FD05C08091E8008B778093E80071
:100A6000FA808F2D0E94E104282FFD828B818E83D6
:100A70008C818F8321110AC08981843039F18730BC
:100A800029F1863029F121E0853039F630E0E5E0C2
:100A9000F0E0EC0FFD1FE30FF11DF0804FB7F8946D
:100AA000D8011196EC911197F0E0CF0101961296C2
:100AB0006C9170E00E948330D8015C915817190640
:100AC00049F44FBF3F5F321710F3A7CF23E0DECFCB
:100AD00022E0DCCF13968D919C911497E80FF91FBB
:100AE000F08211968C91119790E0019612966C917C
:100AF00070E00E948330F8018183E3CF2796E5E020
:100B00000C94CD30A4E0B0E0E8E8F5E00C94AF3010
:100B10007B01142FD22E4A832B830C83842F0E94B7
:100B2000E10481113AC082E0E816F10489F183E022
:100B3000E816F10441F081E0E816F10429F5173FC9
:100B400029F485E004C087E0073F09F084E0898349
:100B5000809154048430C1F4809114018F7080938B
:100B6000E90050E040E064E070E0CE0101960E94B0
:100B70007A03811109C08091E80085FD05C080914C
:100B8000E8008E778093E8002496E7E00C94CB3061
:100B900087EFD812DBCF86E0DACF12951F7019836A
:100BA000D7CF87E797E7909301088093000888E103
:100BB0009AE00FB6F894A895809360000FBE9093CA
:100BC0006000FFCF9C014FB7F8948091430490914F
:100BD0004404A0914504B09146044FBF821B930B7F
:100BE00008952FB7F8946091430470914404809164
:100BF0004504909146042FBF08952FB7F894809133
:100C0000430490914404A0914504B09146042FBF41
:100C100008959C01FC0132969FEF80E041914617B8
:100C200051F09F3F19F4411101C0982F8F5F86301A
:100C3000A9F79F3F09F40895290F311D97FD3A95B3
:100C4000F90162830895E0914004F09141043097E6
:100C500029F00190F081E02D0995089580E0089534
:100C6000CF93DF93EC0140913004509131046091B7
:100C70003204709133042FB7F8948091430490911B
:100C80004404A0914504B09146042FBF841B950BEA
:100C9000A60BB70B843F9140A105B10518F58091D3
:100CA000300490913104A0913204B09133048093C8
:100CB0002C0490932D04A0932E04B0932F0484EF62
:100CC00091E0A0E0B0E08093280490932904A093E1
:100CD0002A04B0932B04D0933804C0933704DF91D7
:100CE000CF9108950E94F10560932C0470932D0418
:100CF00080932E0490932F0482E390E0A0E0B0E074
:100D0000E2CFFC018481862351F492819923B9F0CA
:100D10006923808583FF05C081E061110FC080E0F9
:100D20000895892F8F7092959F70982B862F8F70C2
:100D300062956F70682B81E09613F1CF089581E082
:100D4000FDCF452B39F0682381E06F3F09F080E04B
:100D50008170089581E0FCCFDC01609124048091D2
:100D60002504962F891301C00895292F30E0F90139
:100D7000EE0FFF1FE45EFB4F408151814A175B0776
:100D8000A1F487E08A9FA0018B9F500D11244C5144
:100D90005C4F81E0FA0184839613E6CF2F5F3F4FCB
:100DA000237033272093240408952F5F3F4F922F01
:100DB0009370D8CF1092810310928003E4EEF3E099
:100DC0008581811102C014821682379684E0EC314D
:100DD000F807B1F70895B0E0A0E0E1EFF6E00C9479
:100DE000AC308FEF9FEF4430510508F469C040915B
:100DF000350341FB882780F990E0880F991F42FB5B
:100E0000002700F910E0000F111F000F111F802BA9
:100E1000912B40FBCC24C0F8D12C8C299D2943FB7D
:100E2000222720F9C22FE0E0DE2F53E0CC0FDD1F98
:100E30005A95E1F78C2B9D2B44FBAA27A0F9B0E033
:100E4000E4E0AA0FBB1FEA95E1F78A2B9B2B45FB39
:100E5000EE27E0F9F0E0A5E0EE0FFF1FAA95E1F71D
:100E60008E2B9F2B46FB222720F930E0B6E0220F85
:100E7000331FBA95E1F7822B932B47FB222720F9EA
:100E800030E03695322F222737952795822B932BEA
:100E900020913603322F3170F32EE82EF92A269551
:100EA0002170B22EBB0CA82EBF28C501BB0CAA0B0B
:100EB000BB0BFB0180839183A283B38390E080E02E
:100EC000CDB7DEB7EAE00C94C8308091580390911A
:100ED00059039093100180930F010895E6EEF1E01D
:100EE00090E080E06CE377E243E657E221EB36E204
:100EF00077836683518740873387228795878487E6
:100F000001963E968830910599F7089581152CE554
:100F1000920741F420910D0130910E01232B11F421
:100F200090E080E0089580E008959091350392FF6D
:100F300006C0282F28712830F9F4877F846093FF3A
:100F400006C0282F28712831F1F4877E8461209112
:100F5000360320FF06C0382F38713830D9F4877F28
:100F6000816021FF06C0282F28712831D1F4877EA7
:100F7000816194FD877E0895282F24712430F9F62D
:100F80008B7F8860DCCF282F2471243101F78B7E82
:100F90008861DDCF382F3171313019F78E7F88604D
:100FA000E0CF282F2171213121F78E7E8861E1CF9A
:100FB000CF93DF93EC018238910589F1E0F581331D
:100FC000910509F499C028F58932910509F489C081
:100FD0008A9709F498C0C11523E5D20708F0B3C079
:100FE000C11532E5D30708F010C1C11540E2D4079E
:100FF00008F097C0C11581E0D80758F5C53AD1056A
:1010000008F088C0C430D10520F5C130D10509F100
:1010100045C08533910509F45FC0C997E1F6809119
:101020003503837009F026C18091360383FF11C018
:10103000C9E2D0E00EC0833E910599F170F4803E84
:10104000910501F1823E910531F68091350382FDD3
:1010500021C0CE01DF91CF910895863E910561F1C7
:10106000873E910571F1843E910509F0B4CF8091DE
:10107000360381FFEECF80913503C7EED0E084FDCB
:101080000DC0E7CF8091350380FD33C090913603CA
:1010900090FFDFCFC3EED0E084FFDBCFD0E0C0E035
:1010A000D8CF8091350382FDE2C09091360390FD48
:1010B000E1C084FFCECFF2CF8091350383FDDDCF39
:1010C000C8CF8091350383FDD8C09091360391FF3E
:1010D000F0CFC4EED0E0BDCF8091350385FFB9CF0E
:1010E000A7CF8091350385FDCBC08091360383FF68
:1010F000B0CFC9E3D0E0ADCF8091350386FFA9CF53
:10110000CAE2D0E0A6CF8091350386FFA2CFC1E32B
:10111000D0E09FCFCE01815E9109079708F499CF67
:10112000BDCFC11521E5D20708F06AC0C11530E571
:10113000D30708F050C0C11540E4D40708F4AECF7F
:10114000DF70D06A86CFC11586E5D807F0F4C115E7
:1011500025E5D20708F072C0C11534E5D30708F0C1
:1011600068C0CE018370992721E030E002C0220FD1
:10117000331F8A95E2F7C695C69540E2C49FE00109
:101180001124C22BD32BDA6864CFC1154AE5D407EA
:1011900078F4C11589E5D80708F05BC0C11528E5CA
:1011A000D20708F47BCFDC2FCC27C06FD06A51CF99
:1011B000CE0190568115904208F070CF8D2F8F711F
:1011C0000E94950790E0982F882788279F719C019F
:1011D0002C2BE9013CC02C2F26952695237040E24C
:1011E000249F900111248C2F8370C1E0D0E002C0B5
:1011F000CC0FDD1F8A95E2F7C22BD32BDD6829CFF8
:10120000DC2FCC27C16FD06A24CFCE018370992701
:1012100021E030E002C0220F331F8A95E2F7C69525
:10122000C69580E2C89FE0011124C22BD32BDC6855
:1012300010CFDC2FCC27C46FD06A0BCF8C2F0E942D
:101240009507C82FD0E0DC2FCC27CC27DF71D062E8
:1012500000CF8C2F8F700E94950734E0D695C795EC
:101260003A95E1F7CF709C2FEC01D069F2CEC2EE37
:10127000D0E0EFCEC0EED0E0ECCEC6EED0E0E9CECE
:10128000C5E3D0E0E6CE8091B901882331F0109219
:10129000B9011092B8011092B7010895CF93C82FE9
:1012A0008091360382FF0CC08091B9018C1741F008
:1012B0000E94FD059093B8018093B701C093B901D6
:1012C000CF910895809590914C05982390934C056B
:1012D000089580959091370398239093370308954C
:1012E00090913703892B8093370308951092AE01B4
:1012F0001092AD011092AC01089580915A03909123
:101300005B03892B89F00E94FD052091B701309184
:10131000B801AC01421B530B81E020915A0330917C
:101320005B034217530708F480E081700895ECE4F2
:10133000F1E09191891303C0DF0111971C9291E0B4
:10134000E235F907B1F708952091AB0190916A0158
:10135000291302C080E0089530E0F90153E0EE0F58
:10136000FF1F5A95E1F7E559FE4F5181561306C00C
:101370005081581303C05281541304C02F5F3F4F54
:101380002770E6CF81E008958091AB0190916A01CA
:10139000981301C008958F5F8770FACF923080F55F
:1013A000883070F548E0949F90011124820F932FAC
:1013B000911D682F677023E0969587952A95E1F730
:1013C000FC01EE0FFF1FE80FF91FE45AFE4F50E03B
:1013D00040E080E0219130E0062E02C0369527954E
:1013E0000A94E2F721703327042E01C0220F0A94D9
:1013F000EAF7822B4F5F5F4F4330510559F708954D
:1014000080E00895923098F5883088F548E0949F00
:1014100090011124820F932F911D282F277041E0F6
:1014200001C0440F2A95EAF723E0969587952A95FF
:10143000E1F7FC01EE0FFF1FE80FF91FE45AFE4F22
:1014400090E080E070E05191DF0111979B01082E40
:1014500002C0369527950A94E2F721702195252739
:10146000242325272C9301968330910561F7089555
:1014700092959F70963091F058F4925F9F709230E1
:1014800058F4803F19F030F4883E30F481E008953C
:101490009A5FF4CF843FD1F380E00895883EB0F3A3
:1014A000813FD1F7F3CF9C013A9521153F4150F58B
:1014B000FC01EE27F170BC0166277270AC01442775
:1014C00054709C012227387094FF0EC080E1EF2BEE
:1014D00009F480E0672B09F08062452B09F08064F5
:1014E000232B89F08068089581E0EF2B09F480E0D8
:1014F000672B09F08260452B09F08460232B19F0DB
:101500008860089580E00895CF93DF93EC0181E037
:101510008093E9008FEF9091E800815095FD06C01F
:1015200095ED9A95F1F700008111F5CF8091E800D3
:1015300085FF14C050E040E068E070E0CE010E94FA
:101540007A038091E8008E778093E80088E0FE01BE
:10155000AAE4B4E001900D928A95E1F7DF91CF9172
:101560000895019708F40895EFE9FFE03197F1F746
:1015700000C00000F6CF0F931F93CF93DF9308E5D1
:1015800013E0C7EAD0E0CE010E941131F801819347
:101590008F012196CB3CD105B1F7C2EBD1E0FE0122
:1015A00085919491009711F0FC0109952C96F2E039
:1015B000C234DF07A1F7DF91CF911F910F910895FA
:1015C0000F931F93CF93DF93843038F5623028F563
:1015D000483018F520E1629F8001112450E0440F4B
:1015E000551F040F151F30E2839FC0011124080FFF
:1015F000191FC80187960E941131C82FD0E0DC2F37
:10160000CC27C80188960E9411319E01282BC90160
:10161000DF91CF911F910F91089590E080E0F8CF76
:10162000462F2091330330913403232B99F4703FDC
:1016300039F4603F79F48091310390913203089539
:10164000843040F4723030F4683020F4672F0E9408
:10165000E00A089590E080E00895CF92DF92FF9233
:101660000F931F93CF93DF936C0100914B058091F3
:10167000BA01082BC7E0D0E010E0FC2EC8010C2E08
:1016800002C0959587950A94E2F780FD0CC02197DA
:10169000A0F7F12C8F2DDF91CF911F910F91FF902B
:1016A000DF90CF900895B6018C2F0E94100B0E94FE
:1016B000D807019761F3EECFCF93DF93EC010E943F
:1016C0002D0BBE010E94100B0E94D807DF91CF9115
:1016D0000895CF93DF93EC014B815C816981888110
:1016E0000E94A106811110C08E819F81009739F060
:1016F0000E94D8070E94380ADF91CF91089588810F
:1017000099810E945C0BF6CF80E0F6CFA5E0B0E0B7
:10171000ECE8FBE00C94B33049835A8389819A81C9
:10172000662399F0222389F00E942D0B182F682F31
:1017300089819A810E94020A69817A81812F0E949F
:10174000100B2596E3E00C94CF300E94CE09182FA1
:10175000F3CFFC01262F86819781009739F44081D1
:1017600051816281738184810E94860B089583E296
:1017700090E00E941131853A89F484E290E00E9461
:101780001131803559F485E290E00E94113191E0E9
:101790008B3509F090E0892F8170089580E0FCCFAF
:1017A000CF9384E090E00E941131C82F82E290E054
:1017B0000E941131982F8C2FCF910895DB01FC01ED
:1017C0003296259134914217530758F0FC01349614
:1017D00065917491A901CD010E94F13090E080E003
:1017E00008958FEF9FEF08950F931F93CF93DF938B
:1017F00008E513E0C7EAD0E0CE010E941131F801FC
:1018000061918F01681719F0CE010E941F31219656
:10181000CB3CD10589F7DF91CF911F910F910895AE
:10182000DA019C012E5F3F4FF90145915491F90176
:1018300025913491A217B30758F0FC013496859195
:1018400094910E94F1300E94F40B90E080E00895A2
:101850008FEF9FEF0895CF93DF93CBEBD1E060E064
:10186000CE010E941F312196C11584E0D807B9F737
:10187000DF91CF9108951F93CF93DF93122F843080
:10188000E8F46230D8F44830C8F420E1629FE00107
:10189000112450E0440F551FC40FD51F20E2829F32
:1018A000C0011124C80FD91F632FCE0187960E9453
:1018B0001F31612FCE0188960E941F31DF91CF9199
:1018C0001F910895CF93C82F6FEF811165EA83E2CE
:1018D00090E00E941F316FEFC11160E584E290E05B
:1018E0000E941F316FEFC1116BE585E290E00E940D
:1018F0001F31CF910895CF93C92F682F84E090E0D6
:101900000E941F316C2F82E290E00E941F31CF9124
:1019100008959B01883070F49AE0899FB0011124EA
:1019200065537F4F4AE050E0C9010E94013190E0C9
:1019300080E008958FEF9FEF0895AAE0B0E0E3EA1A
:10194000FCE00C94B4309C0137552F3F310509F071
:1019500068F4BE016F5F7F4F0E94890C892B31F4C0
:1019600089859A852A96E2E00C94D03080917003A4
:1019700090917103F7CFAAE0B0E0E1ECFCE00C94A9
:10198000AA3009EB12E087EAC82E82E0D82E9BE647
:10199000E92EFF24F39427E0922E36EAA32E32E0BC
:1019A000B32E88248394D6010D931D936D014AE0D4
:1019B00050E0B701CE0101960E940131F80138963E
:1019C000DF01892D1D928A95E9F789819A81D801D5
:1019D00011969C938E938F8112968C9312978D8182
:1019E00013968C931397888514968C9314978985F6
:1019F00015968C9315978B819C8117969C938E934B
:101A0000169718961C9218978A8587FF3CC01E96D9
:101A10001C921E921D9780FF03C0D80118968C92CD
:101A200081FF04C0F80190859260908782FF07C013
:101A3000D80118969C911897946018969C9383FFF0
:101A400004C0F80190859860908784FF07C0D80192
:101A500018969C911897906118969C9385FF04C0E6
:101A6000F801808580628087015F1F4FFAE0EF0EEA
:101A7000F11C8BEBE81681E0F80609F094CF2A966A
:101A8000ECE00C94C630F801B686A586C4CFAAE077
:101A9000B0E0EDE4FDE00C94AE30E6E5F2E080E588
:101AA000DF011D928A95E9F7E4EEF3E088E3DF01B8
:101AB0001D928A95E9F786E5C82E82E0D82E7F012F
:101AC0000BE111E0F701D182C0824AE050E0B80199
:101AD000CE0101960E94013188E0FE013196D601C7
:101AE00001900D928A95E1F789859A85D701139621
:101AF0009C938E931297BAE0CB0ED11CE7E0EE0ECA
:101B0000F11C065F1F4F0B36F1E01F07D9F62A962E
:101B1000E8E00C94CA30A2E0B0E0E1E9FDE00C940A
:101B2000B430E8E2F1E041E030E021912F3F09F0EC
:101B30004FC0440F81E0E033F807B9F73983E0E3A1
:101B4000F1E068E371E041E030E021912F3F09F0DE
:101B500053C0440F6E177F07C1F73A8342E050E04D
:101B6000BE016F5F7F4F8EEB91E00E94E430892BC6
:101B700009F456C089819A819093BF018093BE0178
:101B800081E08093BD010E94FD059093BC0180938C
:101B9000BB018091BB019091BC010E94E2050597B9
:101BA00008F442C042E050E06EEB71E082ED91E05B
:101BB0000E94E430892BE9F18091BE019091BF0130
:101BC0009093D3018093D20181E01092BD012DC08A
:101BD000A22FA295AF70B0E090968C9190E02F70FC
:101BE00002C0959587952A95E2F780FD03C0842F62
:101BF000382B9FCF80E0FCCFA22FA295AF70B0E032
:101C000090968C9190E02F7002C0959587952A95BB
:101C1000E2F780FD03C0842F382B9BCF80E0FCCF00
:101C20008091BD018111B5CF80E02296E2E00C9455
:101C3000D03080E0CACF8091370390914C05892B3A
:101C400080934A018091B901882309F180915A0358
:101C500090915B03892B29F00E947D0981110E94DC
:101C6000430980914A019091B901892B80934A01DF
:101C700020E08CE491E0FC013191CF0131112F5F24
:101C8000F1E082359F07B9F721110E944309809145
:101C90003404809590914A01892390913504892BD1
:101CA00080934A0148E050E06FEA71E08AE491E0F5
:101CB0000E94E430892BA9F088E0EAE4F1E0AFEA81
:101CC000B1E001900D928A95E1F7E0914004F09126
:101CD0004104309731F00280F381E02D8AE491E0F5
:101CE00009950895CF93DF93EC01EA85FB85309742
:101CF00019F06C857D8509958B810E9462098C8124
:101D00000E9469090E941B0E86E0FE0111928A95CD
:101D1000E9F7DF91CF910895CF93DF93EC018D81A7
:101D200081FD15C082608D8380914C059B81892B3C
:101D300080934C058C810E9470090E941B0EE885DF
:101D4000F985309721F06C857D85CE01099510923B
:101D50003F0410923E048D8180FD03C0CE010E949D
:101D6000720EDF91CF91089580911101877F80934A
:101D7000110182E00E9462098091110184FF06C076
:101D80008F7E8093110182E00E9470098091110181
:101D900085FF06C08F7D8093110180E20E9470094B
:101DA0000E941B0E089510923703ECE4F1E086E0E8
:101DB000DF011D928A95E9F710924C050E941B0ED7
:101DC0000895AAE2B0E0E7EEFEE00C94B33086E5B9
:101DD00094E02091F100FC012193CF01F4E08E35D5
:101DE0009F07B9F780915704833009F470C0B8F4A5
:101DF000813009F447C0823009F4B1C08091E80015
:101E000083FF9CC280915604909157049A3008F049
:101E100095C2E92FF0E0E35AFE4C0C9497308A30DB
:101E200009F48CC08B3009F46FC0893039F7809188
:101E30005604813219F780915A0490915B04892BE2
:101E4000E9F68091E800877F8093E8008091E800C0
:101E500082FF38C09091F3008091F200029731F434
:101E60008091F100813011F0863021F48091F100F1
:101E7000809349048091E8008B778093E8000E946A
:101E8000CE03BCCF80915604813A09F0B7CF809140
:101E9000E800877F8093E80080915A0490915B046A
:101EA000892B61F468E08AE494E070E00E947A048F
:101EB0008091E8008B778093E800A0CF60E090E00D
:101EC00080E0F3CF809154048111C0CF97CF8091EF
:101ED0005604813A09F092CF80915A0490915B04A4
:101EE000892B09F08BCF8091E800877F8093E800F1
:101EF0008091E80080FFFCCF80911F018093F1006A
:101F00008091E8008E77B9CF80915604813209F034
:101F100075CF80915A0490915B04892B09F06ECFA4
:101F20008091E800877F8093E8000E94CE03809133
:101F3000580480931F010E94D30E60CF80915604F5
:101F4000813209F05BCF8091E800877F8093E800C1
:101F50000E94CE0380915904809348044FCF809112
:101F60005604813A09F04ACF8091E800877F809338
:101F7000E8008091E80080FFFCCF80914804BECF4C
:101F8000803899F0823809F0D9C180915A048F7055
:101F9000873008F0D3C18093E9008091EB0085FB86
:101FA000882780F91092E90006C080915204909130
:101FB0005304911182609091E800977F9093E8001C
:101FC0008093F1001092F1008091E8008E77B2C109
:101FD000882309F4A0C1823009F0B0C1809158046F
:101FE0008111A3C180915A048F702FEF280F2630E2
:101FF00008F0A4C18093E9002091EB0020FF95C177
:10200000933031F48091EB0080628093EB008DC1BE
:102010009091EB0090619093EB0021E030E001C0E3
:10202000220F8A95EAF72093EA001092EA00809145
:10203000EB008860EACF811181C1109158041F77AD
:102040008091E3008078812B8093E3008091E80009
:10205000877F8093E8000E94CE038091E80080FF94
:10206000FCCF8091E30080688093E30082E011114F
:1020700083E08093540462C18058823008F05EC1CE
:1020800020915804309159042C3D83E03807A1F584
:1020900083E08A838AE289834FB7F894DE0113963E
:1020A00020E03EE051E2E32FF0E050935700E4914E
:1020B00020FF03C0E295EF703F5FEF708E2F90E03E
:1020C000EA30C0F0C7968D939D932F5F243159F766
:1020D0004FBF8091E800877F8093E8006AE270E05C
:1020E000CE0101960E947A048091E8008B7780935C
:1020F000E80024C1C096E7CF40915A0450915B0498
:10210000832F99278330910501F160F48130910587
:1021100009F47EC0029709F011C186EA90E0EAE96D
:10212000F2E035C08132910509F466C08232910532
:1021300009F004C14115510509F474C0413051053D
:1021400009F0FCC0E8E3F2E022C03327213031057A
:1021500009F442C02115310581F02230310509F41E
:1021600043C02330310509F0E9C0E2E5F3E0E49132
:102170008E2F90E0E2E5F3E007C0ECE9F3E0E491B4
:102180008E2F90E0ECE9F3E0009709F4D7C020919E
:10219000E800277F2093E80020915C0430915D04E3
:1021A0008217930708F49C0140E02115310509F0DE
:1021B0003EC041113CC08091E80082FD95CF8091E6
:1021C0005404882309F490CF853009F48DCF809191
:1021D000E80083FFF0CF88CFE4E8F3E0E4918E2FAE
:1021E00090E0E4E8F3E0D0CFE0E7F3E0E4918E2F75
:1021F00090E0E0E7F3E0C8CF4115510571F04130C0
:10220000510509F09BC089E090E0E5ECF2E0BFCF1A
:1022100082E190E0E0E4F3E0BACF89E090E0ECEA1C
:10222000F2E0B5CF80E490E0EAE5F2E0B0CF809153
:102230005404882309F458CF853009F455CF809190
:10224000E80083FD51CF8091E80082FDB4CF8091FA
:10225000E80080FFAACF9091F3008091F200211551
:10226000310519F08830910550F041E0089709F0E8
:1022700040E08091E8008E778093E80096CF44910B
:102280004093F1003196215031090196E8CF803812
:1022900009F054C08091E800877F8093E800809126
:1022A00055048093F10090CE811148C010915804DC
:1022B000123008F043C08091E800877F8093E800E7
:1022C000109355040E94CE03112311F084E005C041
:1022D0008091E30087FDFACF81E08093540442E0CF
:1022E00061EC81E00E94ED0342E261EC82E00E9439
:1022F000ED0342E260EC83E00E94ED0342E361E81B
:1023000084E00E94ED0342E361E885E00E94ED0372
:102310008091540413C080915804813079F481E095
:10232000933009F080E0809353041092E90080918B
:10233000E800877F8093E8000E94CE038091E80048
:1023400083FF0AC08091E800877F8093E800809136
:10235000EB0080628093EB00AA96E3E00C94CF3010
:10236000E8E5F3E0128E138E8FEA90E0918380838C
:1023700085E0848F28E833E13383228322E330E051
:10238000378B268B28EC30E0318F208F158E178EFF
:10239000168E20E530E031A320A382A30E94F40B27
:1023A0000E94D30E1092360310923503E6E3F3E059
:1023B00080818460808380913503909136030E94F0
:1023C0007B0C0E94BB0A0895AEE1B0E0EAEEF1E1B9
:1023D0000C94AB30C0900D01D0900E0181E090E0E4
:1023E00090930E0180930D01F12CE12C88E8A82E2A
:1023F00081E0B82E912C1CC0E114F104E1F4F80145
:10240000EE0FFF1FEA0DFB1D25913491402F692D22
:1024100080E00E943B0C0F5F1F4F0830110561F7F1
:1024200080E1A80EB11CE1E09E1659F09924939426
:1024300010E000E0E1CF21E030E0402F692D8E2D4B
:10244000E8CFFFEFEF1AFF0A84E0E816F10471F617
:102450000E94B0111A8219821C821B821E821D8268
:1024600018861F8288EC90E09A8789870BEC10E031
:102470004AE050E0B801CE0101960E944331065F68
:102480001F4F0B31E1E01E0799F77E01FBE0EF0ED5
:10249000F11C8AE0F70111928A95E9F74AE050E0D1
:1024A000B801C7010E944331065F1F4F0B36F1E0B0
:1024B0001F07A1F77E0185E1E80EF11C8AE0F70114
:1024C00011928A95E9F78FEF9FEF9A8F898F87E0B6
:1024D0008E8F4AE050E0B801C7010E944331065F89
:1024E0001F4F0B3BF1E01F07A1F7D0920E01C092E6
:1024F0000D016E96EBE00C94C73080E00E94620CF8
:1025000060E086E290E00E941F310E94E4110E9488
:102510002B0C81E00E94620C0895CF92DF92EF9223
:10252000FF928FEF9FEF4430510508F46AC0FB0122
:10253000C080D180E280F3800E94D30E8091350369
:10254000C0FA80F9B701A60176956795579547952A
:1025500040FB81F9B701A60122E076956795579572
:1025600047952A95D1F740FB82F9B701A60133E0E0
:1025700076956795579547953A95D1F740FB83F93E
:10258000B701A601E4E07695679557954795EA95DA
:10259000D1F740FB84F9B701A601F5E07695679580
:1025A00057954795FA95D1F740FB85F9B701A601F4
:1025B000A6E07695679557954795AA95D1F740FB84
:1025C00086F9B701A601B7E07695679557954795C7
:1025D000BA95D1F740FB87F9809335038091360394
:1025E000D0FA80F9D1FACC24C0F8C0FA81F98093EE
:1025F000360380913503909136030E947B0C90E066
:1026000080E0FF90EF90DF90CF9008950E94D30E6E
:102610002FEF84E39CE0215080409040E1F700C020
:10262000000088E19AE00FB6F894A89580936000C6
:102630000FBE90936000FFCF80934B0510924C0526
:102640000E941B0E089580914B05982F967096302E
:1026500021F488600E941C130895877FFBCF21E03E
:1026600030E001C0220F8A95EAF7209580914B0552
:1026700082230E941C1308959091AE0180958923B6
:102680008093AE01282F277091F4282F082E000C7C
:10269000330B9217130659F09091360392FF07C03F
:1026A0008595859585950E942F130E94760908953A
:1026B0009091360392FB222720F9281769F080FBBE
:1026C00092F99093360380913503909136030E94DE
:1026D0007B0C82E00E943C13089521E030E001C0B1
:1026E000220F8A95EAF780914B05822B0E941C13DA
:1026F00008959091360392FF10C098E0899F900151
:102700001124622B6093AE010E946D130E94FD059F
:102710009093AD018093AC0108950E946D130895CC
:102720008093BA0110924C050E941B0E08958823D5
:1027300021F00E9462090E941B0E0895882339F03F
:1027400090914C05982B90934C050E941B0E089578
:10275000882321F00E9469090E941B0E0895882396
:1027600021F00E9470090E941B0E0895882389F1B0
:102770009CEF980F913A28F40E9497090E941B0E33
:10278000089590E2980F983050F4877091E001C05E
:10279000990F8A95EAF7892F0E946909EFCF9BE587
:1027A000980F9330B8F48091580190915901892B7A
:1027B00081F01092590110925801E0914004F0917B
:1027C0004104309731F00680F781E02D90E080E001
:1027D00009950895885A8731E0F780915A019091C0
:1027E0005B01892BB1F310925B0110925A01E091C9
:1027F0004004F0914104309761F30084F185E02DAD
:10280000E5CFFF920F931F93CF93DF93F82E0091A4
:10281000390410913A040115110509F449C01092C8
:102820003804109237041092340410923504D80101
:102830001696CD91DC919E013A9521153F4108F401
:10284000D07ED1E0C11101C0D0E0D8011996ED9140
:10285000FC911A97309731F01B966D917C9180E036
:102860000995D823DD2339F08CEF8C0F813A30F5B0
:102870008C2F0E949709FF2099F0E0913904F09184
:102880003A04808584FD0CC080913604882341F091
:10289000808191819C0121503109203B3D45A0F070
:1028A0000E941B0E10923A041092390410923604C2
:1028B000C801CDB7DEB7E5E00C94CD300E941B0E09
:1028C0008C2F0E94B613D7CF0E943006E9CFCF934A
:1028D000DF93EC010E94B613CE010E94530A9E01C1
:1028E000205E31092830310510F0CD2B29F40E94EB
:1028F000A813DF91CF9108950E949713FACFCF9339
:10290000C82F8823A1F08CEF8C0F813A90F4ECE46F
:10291000F1E08191C817D1F081E0E235F807C9F7FD
:102920006C2F8AE491E00E9409060E941B0ECF9151
:10293000089580E28C0F8830D0F7C77081E001C025
:10294000880FCA95EAF70E947009EFCF8C2F0E947A
:1029500097090E941B0EE4CF1F93CF93DF93182F8C
:10296000C0917803D0917903893321F0C091760327
:10297000D0917703812F0E947F14209739F4812F03
:102980000E94B613DF91CF911F9108958FE99FE0C8
:102990000197F1F700C000002197EFCFB0E0A0E071
:1029A000E4EDF4E10C94AC30EC018AE0A82E28812F
:1029B000222309F48FC02130C9F599818A81913091
:1029C00021F422960E94AC1405C0923029F422967C
:1029D0000E947F142196EBCF933021F422960E941F
:1029E000B613F8CF943011F02196F4CF229630E050
:1029F00020E0AE014F5F5F4F8053990B8A30910505
:102A000050F02150310930F38FE99FE00197F1F741
:102A100000C00000F6CFA29EB001A39E700D11244D
:102A20009C01260F371F8981EA01E3CFE22FF0E0F6
:102A3000E053FC4FB490822F86958695869590E062
:102A4000FC01E054FC4FE4902770F12C022E02C0F0
:102A5000F594E7940A94E2F731E0E322FF24FC01C5
:102A6000E055FC4FC490D12C022E02C0D594C794DF
:102A70000A94E2F731E0C322DD24FC01E056FC4F6A
:102A8000049110E002C0159507952A95E2F70170B0
:102A90001127E114F10419F081EE0E947F14C11492
:102AA000D10419F086EE0E947F148B2D0E94AC1485
:102AB000C114D10419F086EE0E94B613E114F1049A
:102AC00019F081EE0E94B6130115110509F482CFA9
:102AD0008CE278CFCDB7DEB7EAE00C94C830B0E036
:102AE000A0E0E5E7F5E10C94AC307C015B01C42F7C
:102AF000D22FFC0182818823A9F040933D040E94DB
:102B0000FD0590933C0480933B04C77081E001C0B5
:102B1000880FCA95EAF70E94AF13CDB7DEB7EAE097
:102B20000C94C83010913D04141338C080913B04BC
:102B300090913C040E94E2056C01B701C5010E941E
:102B40009D0CC816D90650F5C0E2CD0F1D17C1F077
:102B500080E2810F883048F4177081E0012E01C0B7
:102B6000880F0A94EAF70E94A813C83048F481E05D
:102B70009D2F977001C0880F9A95EAF70E94AF13B6
:102B8000802F0E94AC14C83040F6D77081E001C09D
:102B9000880FDA95EAF70E94A813BFCFC77081E0CB
:102BA00001C0880FCA95EAF7F6CFCF93DF93EC0107
:102BB0000E94530A9E01205E31092830310510F031
:102BC000209741F40E94AF138C2F0E947F14DF9155
:102BD000CF9108950E949E13F7CF662329F020918C
:102BE0004C05226020934C059C013056211540E293
:102BF000340720F0305E2115304108F499270E94F7
:102C0000D5150895B0E0A0E0E8E0F6E10C94AF300F
:102C10007C018B01D42E8091110182FF8CC0C09168
:102C20007E03D0917F03CE15DF0521F0E114F1047E
:102C300009F081C0809111018B7F8093110181FD8A
:102C400073C080917C0390917D03A801481B590BB0
:102C500081E020910F01309110014217530708F4D1
:102C600080E08170F82E80911101F0FA81F9809353
:102C70001101FE0183E0F695E7958A95E1F7EE7183
:102C8000FF27E85CFC4F20813181AE014F70552752
:102C900081E090E002C0880F991F4A95E2F7FF207B
:102CA00009F444C0822B932B918380838091370356
:102CB00081FF08C08091110180618093110182E041
:102CC0000E9469098091370385FF08C08091110136
:102CD00080628093110180E20E9469096F2DCE010C
:102CE0000E94ED15DD2031F08091730385FF02C055
:102CF00086FF3BC080917603909177030E94B10AD2
:102D000080917E0390917F039C013056211540E213
:102D1000340720F0305E2115304108F499270E94D5
:102D200067140E94B40E1DC081E09BCF80959095E2
:102D300082239323B9CFC7019927970130562115D4
:102D400040E2340728F0305E2115304108F0C70119
:102D50000E94671480917E0390917F038E159F05DA
:102D600001F310937D0300937C03CDB7DEB7E7E05A
:102D70000C94CB3068EE7EEF90E080E00E943D3115
:102D800060E082E090E00E941F3160E083E090E02C
:102D90000E941F311092BA0160E084E090E00E942E
:102DA0001F3164E082E290E00E941F3160E085E024
:102DB00090E00E941F3160E086E090E00E941F31A9
:102DC0006FEF87E090E00E941F3140E050E0BA01D1
:102DD00088E090E00E94313160E08DE090E00E9458
:102DE0001F3140E050E0BA0188E190E00E943131AB
:102DF00060E087E190E00E941F3140E050E0BA01BE
:102E00008CE190E00E94313170E060E080E290E07F
:102E10000E943D3140E050E0BA0188E190E00E941C
:102E2000313180E00E94620C0E947D1240E050E04F
:102E3000BA018FE090E00E94313140E050E0BA01E9
:102E400083E190E00E9431310895A7E0B0E0EBE229
:102E5000F7E10C94A4307C01DC0113964D915C9158
:102E6000149711966C9111978C910E94A106811173
:102E7000EEC061E0C7010E94A90B8C01F7018281BD
:102E80008823E1F080913E0490913F040097B1F0D7
:102E90000817190799F0FEE08F9FC0011124FC016B
:102EA000E551FE4F2081246020838A519E4FDC0132
:102EB0000D931C930E948C0E10924C05F701828199
:102EC000882311F40C94BD1FC80182519F4540977F
:102ED00010F00C94B11F8FEF93E00E94113181111B
:102EE000A6C07EEED72ED00E0BEB11E0D11036C06F
:102EF00019821A821B821C8299249A9468012FEFEE
:102F0000C21AD20AC8010E94113189831A82882309
:102F100009F48DC0813009F07FC0580132E0A30E62
:102F2000B11CC6010E941131C82E8A83882309F47E
:102F30007EC0C5010E941131D82E8FEF8C0D8330D9
:102F4000D8F4580143E0A40EB11CDB82DD2021F04F
:102F5000CE0101960E94CE148501D0CF0115F4E078
:102F60001F0709F464C0C8010E941131811101C01A
:102F7000DA940F5F1F4FBACF8BEF8C0D833030F593
:102F8000C8010396DB825C01DD2031F3580154E077
:102F9000A50EB11C0E9411318C838823E9F28B812C
:102FA0009C818130AFEF9A0710F0982F8827B6E008
:102FB000CB1631F0E7E0CE1631F00E942B27CCCFB4
:102FC0000E940527C9CF0E948C26C6CFF4E0CF12FD
:102FD000C3CF580124E0A20EB11CC80103960E9481
:102FE0001131DD2021F1882311F18150990B989E38
:102FF0009001999E300D11244D2D4150550BCA0161
:10300000820F931F019708F4A7CFAFE9BFE0119794
:10301000F1F700C00000F6CFCE0101960E94CE1459
:1030200056019ACF81E00E946D130E942313809174
:10303000AE01877061F0D70112968C91882339F028
:103040008091360382FF03C082E00E943C132796E2
:10305000E2E10C94C03081E00E942F13E6CF82E0C1
:10306000FBCF823009F0C7C78091E0019091E10168
:10307000892B09F4C0C72EE02C9DC0012D9D900D19
:103080001124FC01E551FE4F20812E7F20838A51BF
:103090009E4F0E948C0EAFC781E080930001C7CF86
:1030A00080910001882309F488C6480120EE821A25
:1030B00091084090B90180915501482A80913703C9
:1030C000482A38E08316910408F086C098012770DA
:1030D000332781E090E001C0880F2A95EAF7552058
:1030E00009F477C0482AD7018D919C910E94CE099E
:1030F00021E030E0F90102C0EE0FFF1F8A95E2F7F0
:10310000FF83EE832090390430903A04609052019E
:10311000709053011D822D81E22FF0E0EE0FFF1F12
:10312000E955FD4FC080D180C114D10409F4A9C66E
:10313000411005C0D60112968C91811189C0F6010B
:10314000838190E02E813F8182239323892B09F490
:103150007FC08085982F977009F487E038E0831648
:10316000910408F053C0552009F44CC08695817035
:10317000882309F46DC0D601AD90BC900A151B05DB
:1031800019F4552009F464C0C214D30409F460C0D2
:10319000D6011D96ED91FC91309721F08081882316
:1031A00009F456C0642DC6010E948106882309F4E3
:1031B0004FC00A151B0509F071C70115110509F467
:1031C00072C7511072C7A614B70409F041C0512C40
:1031D0006CC78095482287CF552009F43BC61093D1
:1031E0005301009352010E94F105609330047093E3
:1031F0003104809332049093330410923804109277
:10320000370471CF82FB882780F9B2CF552001F1B6
:103210008170AECF0E94B61366C70497813A9105BC
:1032200058F46A2D8AE491E00E940906552009F4B9
:10323000C4C50E941B0EFBCE0E941B0E8FE39CE9AF
:103240000197F1F700C000008A2D0E947F14EECF95
:103250009D819F5F9D835FCFFC012081318102179B
:10326000130709F0A3C55110A3C51092360480E0DE
:103270000E940114A2C5902F812FE7C5F901858115
:1032800081FF13C6C9010E94720E0FC68091110101
:1032900081608093110137C6809111018E7F8093E8
:1032A00011010E94B40E2FC6809111018F7E013E44
:1032B000110531F0053E1105C9F4809111018F7D92
:1032C000809311018091110180FF2CC6D7011296C5
:1032D0008C910832110528F50E31110508F072C0E5
:1032E0000430110580F5811119C61CC6C80190561D
:1032F000811540E2940720F0905E8115904110F70F
:103300008091110182FF0EC68091750381FD0AC66E
:1033100027EC31E040E0B60190E080E00E94021628
:1033200001C60933110558F40D32110518F40B329A
:103330001105C9F69091730392FDD5CF08C00436EC
:103340001105C1F3D0CF9091730394FDCCCF8823A6
:1033500009F4A8C08091B90190913703892B8D7F22
:10336000B1F110927F0310927E038091730381FD6F
:103370002EC0F80143E0F695E7954A95E1F7EE7126
:10338000FF27E85CFC4F98012F70332781E090E025
:1033900002C0880F991F2A95E2F7809590952081A9
:1033A0003181822393239183808360E0C8010E944E
:1033B000ED158091B9018D7F0E944E0982E00E9437
:1033C0003C1335CE9091730393FD8DCFC0CF88E031
:1033D000F701A7ECB1E001900D928A95E1F7109208
:1033E000C9011092CB011092CA0180917E03909185
:1033F0007F0308171907D1F52091730325FF36C005
:103400003091110131FF02C026FF30C020917C03B2
:1034100030917D035601A21AB30AB7010E949D0C98
:10342000A816B90618F58091370381FF08C080916E
:10343000110180618093110182E00E9469098091ED
:10344000370385FF08C080911101806280931101CC
:1034500080E20E9469096091110166956170809116
:103460007E0390917F030E94ED15E1CD8091B9011B
:1034700090913703982B2091110191FB21F9209312
:1034800011018D7F0E944E0910937F0300937E03EC
:10349000D0927D03C0927C0380911101846080935F
:1034A00011018CCF970140E0B601C8010E940216BD
:1034B000BECD053F4CE5140709F463C008F45BC0BA
:1034C000063F8CE5180709F462C0D70112963C91BB
:1034D000332309F4B0C510923D040330BDE51B074A
:1034E00008F061C00A3FECE51E0730F4C8018250C5
:1034F0009C45449708F063C00E94D00B909336031C
:103500008093350302315CE5150709F49EC108F08C
:10351000EEC009309CE5190709F475C108F0B8C080
:103520000530BCE51B0709F462C108F09FC00330F9
:10353000FCE51F0709F453C108F055C1809135031C
:10354000816002303CE5130709F4CEC08091350359
:10355000909136030E947B0C0E94D30E68CD07E247
:1035600025EE45EE68ED7CE5F8C406E221EE40EE7E
:1035700063EF7CE5F2C407E225EE44EE64EF7CE500
:10358000ECC406E221EE42EE65EF7CE5E6C407E21C
:1035900025EE46EE66EF7CE5E0C408E221E045EE6C
:1035A00069ED7CE5DAC4053AFDE51F0709F4A4CF0F
:1035B00008F055C001364DE5140709F49DCF0631DA
:1035C0008CE5180709F43CC50A355DE5150709F4D3
:1035D00095C108F06EC101159CE5190709F474C185
:1035E0000E3D1C4509F47DC1F70186819781009746
:1035F00009F488C10E94D807182F092FF701B2805B
:10360000D580D2943FE0D3228091AE018770C1F083
:10361000AB2CBB20B1F0892F807F803421F080E279
:10362000810F883068F08091360382FF09C082E004
:103630000E943C138091AE018770AA24A39481114B
:10364000A12C902E92942FE09222FBE0F91508F421
:10365000E6C1E92DF0E0E959FE4C0C949730C80121
:103660008D5A9D45039708F0AACF46CF8091350328
:10367000806207304CE51407B9F180913503806111
:1036800008305CE5150780F18091350380642CC01B
:103690000D308CE5180709F4C0C090F48091350313
:1036A0008E7F0B30ACE51A07F9F0809135038C6002
:1036B0000C30BCE51B07C0F0809135038D7F14C032
:1036C0000F30ECE51E0709F4B8C008F4AAC00031B9
:1036D0002CE5120709F4B5C0809135038F7B0131C9
:1036E0003CE5130709F032CF809335032FCF0F3F0E
:1036F0004CE5140709F4B3C0A8F50A3F8CE5180798
:1037000009F479C0C0F40431ACE51A0709F4B5C076
:1037100008F4A1C00531ECE51E0709F017CF809130
:10372000350382FB992790F921E0922790FB82F9DB
:1037300090FB83F9D9CF0C3FFCE51F0709F475C056
:1037400008F45DC00D3F3CE5130709F472C0809199
:10375000360383600E3F4CE5140709F0F7CE8093E3
:103760003603F4CE01365DE5150709F491C090F4F7
:1037700001309DE5190709F489C008F474C060E0C0
:103780000230BDE51B0709F0E1CE8EE090E00E941B
:103790001F31DCCE0D3AEDE51E07E9F060F49091A3
:1037A0003503892F8E7F90FF8160053A2DE5120742
:1037B00009F49ACFCBCE0E3A3DE5130751F10F3AFB
:1037C0004DE5140709F0C2CE90913603892F877F0B
:1037D00093FF8860C4CF809136038860C0CF80910A
:1037E0003503826081CF8091350384607DCF8091E5
:1037F0003503886079CF809136038160B0CF8091A6
:1038000036038260ACCF0E94D30E8091350380686E
:103810006BCF80913603877FA2CF809135038B7F5A
:1038200063CF80913503877F5FCF809136038E7F92
:1038300096CF809136038D7F92CF809135038F7E16
:1038400053CF809135038F7D4FCF0E94D30E80914F
:1038500035038F7749CF80913503837F45CF8091A2
:1038600036038C7F7CCF80913603982F9095917092
:103870008E7F892B90FB81F972CF0E94D30E90919D
:103880003503892F97FB87F980582ECF61E07DCFD4
:1038900090913503892F8F7E94FF806125CF809191
:1038A0005401811104C089E20E949709C2CC85E3CA
:1038B000FBCF0C35BDE51B07B9F010F1073A1D45EC
:1038C00009F092CE0E9406130E94D30E2FEF34E32C
:1038D0004CE0215030404040E1F700C000000E9421
:1038E000D1050E94BA16EECF8091360382FB88275D
:1038F00080F991E089270E94581376CE81E0FBCFB2
:1039000080E0F9CF828100811181882369F0C801AC
:103910000E942D0BD82E682FC8010E94020AB80100
:103920008D2D0E94100B66CEC8010E94CE09D82EA4
:10393000F6CF202F2F70C22E802F807F19F0C294D7
:1039400090EFC922BB20A9F0CC2059F080E2810F72
:10395000883010F0111107C08C2D0E9470090E9450
:103960001B0E812F5AC080914C05C82AC0924C056D
:10397000F6CF812F0E94B613CC2009F450C080E20C
:10398000810F883010F0111104C08C2D0E9469093C
:1039900003C08C2D0E9462090E941B0E40C0302F74
:1039A0003F70C32E802F807F803219F0C29480EF49
:1039B000C822112321F1113009F4AEC0BB2009F453
:1039C000B7C0DD2009F47FC020E0D7014C911196EB
:1039D0005C91119712966C91129713967C911397A4
:1039E00014968C910E94860B8091750381FDB9CF4E
:1039F000F701858180FFB5CF8F70858364C080918A
:103A0000360382FD40C0BB20C1F1CC2029F08C2DB3
:103A10000E9470090E941B0E80E00E947F14A92D55
:103A2000A850BB0B149710F40E942306812F902FEF
:103A30000E94380A81119BC11092570110925601C1
:103A4000AA20B1F08091AE0180FD12C0D70112967C
:103A50001C928595859585950E946D13C7010E94DE
:103A600025178091AE018595859585950E942F1328
:103A700060E0C7010E94A90BEACA80E00E94B61369
:103A8000CC2069F282CFBB2011F1D11004C080910B
:103A9000B9018C2919C041E0D41206C08091B90146
:103AA0008C290E944E09BBCF80917403823078F339
:103AB000D812EDCF0E944309909155018C2D892B8E
:103AC0008913809355018C2D0E94AF13A8CFD1107C
:103AD00003C00E94430917C08091740351E0D512BE
:103AE00016C0823008F49BCF809137038C2109F4F3
:103AF00096CF0E944309909155018C2D8095892382
:103B00008913809355018C2D0E94A81388CF823091
:103B100000F3D812DECF83CF80917A03BB2021F04F
:103B20008D1508F47CCFCFCFD81608F078CFEBCF27
:103B3000DD2049F38091780390917903193321F0C6
:103B400080917603909177030E94B10A812F0E94A1
:103B5000B61365CF802F837091F5B11060CF412FE0
:103B6000429546954770440F440F812F8F70042E65
:103B700001C0880F0A94EAF7212F207114FF07C0B3
:103B80002FE030E001C0220F4A95EAF72095302F50
:103B9000369536953370323069F050F44091BA0161
:103BA000313029F0822B84230E94901338CF842B4C
:103BB000822BFACF282B8091BA018227F5CF8695E8
:103BC000BB2011F0802F8170882309F428CF412F6A
:103BD000429546954770440F440F812F8F70042EF5
:103BE00001C0880F0A94EAF7212F207114FF07C043
:103BF0002FE030E001C0220F4A95EAF72095302FE0
:103C0000369536953370323069F050F440914B055B
:103C1000313029F0822B84230E941C1300CF842B87
:103C2000822BFACF282B80914B058227F5CFF02FDE
:103C3000FF70CF2EBB2029F08F2F0E946D13812F94
:103C400043CF812F0E94A8138C2D0E942F13E7CE03
:103C5000123F89F160F4103FB9F0113F81F0BB20B1
:103C600009F480C0D1107DCE802F8F7128C0133F02
:103C700049F1143FA1F78091360382FD2FC0802FB8
:103C80008F71BB2011F31BC080917A03BB2079F0A8
:103C9000D81608F0C4CE202F2F7181E090E001C02B
:103CA000880F2A95EAF790914B058927B5CF8D1596
:103CB00008F4B5CEF0CF802F8F71B110C6CF0E941F
:103CC0006D13ADCE80E0BB2009F4A6CF81E0902F2C
:103CD0009F7101C0880F9A95EAF79ECF8091740377
:103CE000823040F1BB20D1F09091AE0197709430BA
:103CF00041F40E947609802F8F710E942F13A12C0E
:103D00008ECED816E0F7202F2F71C22E822F0E9460
:103D10006D1363E08C2D0E947913F1CFD81630F02B
:103D20000E94760964E0802F8F71F5CF81E00E94B8
:103D30003C13E5CFBB2059F0302F3F71C32E832FAA
:103D40000E946D1363E08C2D0E94791368CE81E090
:103D50000E943C1341E04D1508F061CE82E00E94C4
:103D60003C135DCED110E6CE802F8F716ECFBB207D
:103D700019F0D11061CE64CED1105ECE20E0F701F3
:103D8000408151816281738184810E94860B809180
:103D9000750383FF51CE8091560190915701029790
:103DA00009F04ACE812F0E94AC1446CE552029F04E
:103DB000DC0118968C9185FF5ACAC80197558F3F30
:103DC000910511F008F071C05801BB24BEE00B9FB3
:103DD000F00111249F012A513E4F6901D70112962B
:103DE0008C91E551FE4F908180FB90F99083882360
:103DF00009F444CA0E94FD059093C6018093C50151
:103E0000F60182818F5F828380914C059091370308
:103E1000892B83838091B90184830680F781E02D0B
:103E2000309731F0D6011C966D917C91C6010995B1
:103E30008EE08A9DF0018B9DF00D1124EA51FE4F1A
:103E4000858181FF18CA90E080E090933E048093C2
:103E50003F042BC08091520190915301081719071C
:103E600081F410925301109252011092300410927A
:103E700031041092320410923304109238041092DC
:103E800037048091390490913A04009709F495CF52
:103E9000A8E08A16910408F0DFC9642D0E9481060B
:103EA000811103C081E00E9401148091730380FF9F
:103EB00039C00E94FD056C01D70112968C918823B0
:103EC00009F4F2C98091110182FF08C027EC31E0AA
:103ED00040E0B60190E080E00E9402160B31BCE5A4
:103EE0001B0709F4D3C90C31ECE51E0709F4D4C94A
:103EF00090911101892F8E7F90FF81600A31FCE53E
:103F00001F0709F4CCC9C8019056811520E2920719
:103F100028F0905E8115904108F0D4C910927F037B
:103F200010927E03033FBCE51B0709F41ECB08F08B
:103F3000C0CA083DFCE51F0709F411CB093D2CE57B
:103F4000120709F42ACB073D3CE5130709F0BDCA67
:103F500006E221EE41EE67ED7CE5C7010E946F1598
:103F600066C80031FFE51F0709F45CC801312FE581
:103F7000120709F040C082E056C800313FE5130740
:103F800009F469C801314FE5140709F468C86801EC
:103F9000E7E5DE1AFFEFCF16D10409F060F56CED0E
:103FA00071E08C2D0E94890C892B29F58EE08C9D67
:103FB000F0018D9DF00D1124EA51FE4F8281813078
:103FC00009F04FC88091DC019091DD01892B99F0B7
:103FD0008091DE019091DF01892B69F08091E001F1
:103FE0009091E1012091E2013091E301822B932B2A
:103FF000892B09F440C8D70112965C90552009F42A
:104000004FC80F35BDE51B0709F446C80036EDE57E
:104010001E0751F00E35FDE51F0709F041C88091DC
:104020000001882309F438C81092000180E00E9442
:1040300001140C94171806315CE5150709F0D4CA71
:1040400080913703982F9A7A2091720320FF04C041
:10405000482F447409F090E021FF04C0482F4171BB
:1040600009F090E022FF04C0482F487809F090E062
:1040700023FF03C0827209F090E0332309F40FCCD0
:1040800081E0911101C080E08093540169E29111B7
:1040900065E38AE491E00E940906CBC8A114B1044B
:1040A00009F091C8512CB12CA12C80E00E94011480
:1040B000D0923A04C092390481E080933604F6012C
:1040C00085818093340451100EC0AB2861F0F60155
:1040D000808191819C0124503109213A310508F0F9
:1040E00099C80E949709D6011696AD90BC90C5015B
:1040F0009A9581159F4110F4E0EEBE2277247394C7
:10410000C5010197803B9D4508F0712CD601199699
:10411000ED91FC911A97309731F01B966D917C913F
:1041200081E009957822772079F0F60186819781E0
:104130000E94530A80933504C501F8E08F1691045C
:1041400008F06BC80E9430060E941B0E6FC8B0E0DA
:10415000A0E0EDEAF0E20C94AE3080916701807F40
:1041600031F480916401C091AB01811107C0CDB7DA
:10417000DEB7E8E00C94CA302196C77080916A01DE
:104180008C17A9F3F0906201E0906301C090650183
:10419000D0906601A6016E2D8F2D0E94A106D0E061
:1041A0008111EACF8E0183E0000F111F8A95E1F79C
:1041B000F801E559FE4F81818E11DECF80818F118C
:1041C000DBCF82818111D8CFE380F480EC18FD0829
:1041D00060E082E691E00E94A90B62E671E00E9435
:1041E0009D0CE816F90640F6809167018F7080619A
:1041F00080936701F801E059FE4F80818F708061E4
:10420000808382E691E00E9425170E94C409AFCF07
:10421000A5E1B0E0EEE0F1E20C94A7308C0185E07E
:10422000F801DE01519601900D928A95E1F7D801CF
:104230005C9011966C9011971296EC9012971396D1
:10424000CD90DC9060E082E691E00E94A90B82E6CE
:10425000A82E81E0B82E8090650190906601A4019F
:1042600060916301809162010E94A1068111A8C141
:10427000F0906401F601E819F9094F0160E0FF20B0
:1042800009F44BC1C5010E94A90BB5010E949D0C08
:10429000709067018816990608F0F2C04091650198
:1042A00050916601B0906201A0906301872D807FDC
:1042B0006A2D09F08CC08B2D0E94A106FE2C811165
:1042C00027C0D80111968C9111978A1121C08C9129
:1042D0008B111EC0209168013091690116968D9155
:1042E0009C9128173907A1F4E11012C0872D8F7017
:1042F00080618093670182E691E00E94251780919A
:104300006701F80185838F2D6596EFE00C94C3302B
:10431000A601662D852D0E94A106D82E81E08E254E
:10432000D11080E080FF18C04E2D662D852D0E9493
:10433000A409882389F08091750380FF0DC082E66F
:1043400091E00E94251788E0E2E6F1E0DF011D928E
:104350008A95E9F7F12CD7CF81E08E25D11080E046
:10436000B82FB170CB2E80FF29C04E2D662D852D24
:104370000E94A409D82E811121C0598A6A8A89898C
:104380009A890E945C0B292F22952F70223050F0C1
:10439000243078F49F7051F0F8019581907F31F4CA
:1043A000FD2CB1CF9F7011F08823D1F3805E88304F
:1043B000B8F3C8010E942517DC2CF2CFEE2009F4D7
:1043C000A2CF80916701816080936701C3CF8B2D5D
:1043D0000E94A106811124C0D80111968C911197D9
:1043E0008A111EC08C918B111BC0209168013091E5
:1043F000690116968D919C9117972817390781F4BA
:10440000E1100EC015967C92C8010E94251788E025
:10441000F801A2E6B1E001900D928A95E1F773CF21
:10442000C8010E94690B882339F1EE2029F180919F
:1044300067018032A0F020916201309163013A87D8
:1044400029871B86DD86CC868E87809168019091B6
:104450006901988B8F87CE0109960E94251788E005
:10446000F801A2E6B1E001900D928A95E1F70E9471
:10447000A720FF24F39447CFC8010E942517F9CF46
:10448000872D807F09F45BCF90906201809063015B
:104490004091650150916601682D892D0E94A10609
:1044A00081111CC0F8018181881118C08081891197
:1044B00015C0209168013091690186819781281784
:1044C000390761F4E1100AC07582C8010E942517FE
:1044D00088E0D5011D928A95E9F715CFC8010E94A1
:1044E000690B882349F2EE2039F28091670180320E
:1044F00008F4B5CF20916201309163013A8329839A
:104500001B82DD82CC828E8380916801909169014B
:1045100098878F83CE010196A0CF82E691E00E941A
:10452000A90B62E671E00E949D0C8816990680F640
:10453000FE2CEE2009F4A0CFE0906201D090630140
:1045400040916501509166016D2D8E2D0E94A1064E
:10455000811128C0F80181818D1124C080818E11C4
:1045600021C02091680130916901868197812817C7
:104570003907C1F48091750382FD49CF909167019D
:1045800090FD45CF907F09F442CF809167018583EC
:10459000903F09F439CF982F907F905F8F70892BCF
:1045A000858332CFC8010E94690B811158CF809159
:1045B0006701816080936701C8010E942517A3CE1F
:1045C000EE2009F459CFC8010E94690BF82E882308
:1045D00009F452CF88E0F801A2E6B1E001900D9213
:1045E0008A95E1F780916201909163010E945C0BD2
:1045F0000E94A72088CEA0E1B0E0E1E0F3E20C94B5
:10460000B43029873A874B875C876D877E878F8791
:10461000988BCE0109960E94082181112FC088E055
:10462000FE013996DE01119601900D928A95E1F70F
:104630004C855D856A8589850E94A10681111EC011
:10464000A0916A01B0E0CD01019687709927209171
:10465000AB0128171906E1F093E0AA0FBB1F9A954A
:10466000E1F7A559BE4F98E0FE01319601900D92F9
:104670009A95E1F780936A010E94C4098091AB0189
:1046800090916A01891312C06096E2E00C94D030D8
:104690000E94D30E10926A011092AB0188E0E2E60C
:1046A000F1E0DF011D928A95E9F7E8CFB8E08B9F32
:1046B000C001112485599E4F0E940821882321F3AF
:1046C0008091AB0190E00196877099278093AB01B0
:1046D000D5CFEF92FF920F931F93CF93DF938091EB
:1046E0008303882361F0C09182038CE0F82E8091CF
:1046F0008303C81748F01092830310928203CDB74A
:10470000DEB7E6E00C94CC30EE24E394EC0EE092BD
:1047100082030C2F10E0CF9DE0011124CC57DC4F19
:104720004B815C81698188810E94A10681111DC035
:104730008E819F81892B21F488859985019651F47A
:10474000288139814A815B816C817D818E819F8145
:104750000E94FB22F09EF001F19EF00D1124EC5717
:10476000FC4F1482138210924C05CE2DC0CF1092B4
:104770002704109226041092120180912504809340
:1047800024040E94DA060E9469230895B0E0A0E0A4
:10479000ECECF3E20C94A530C091240497E0892E50
:1047A00001E010E02CE0322E3EEF932E442443949F
:1047B000809125048C1309C00E9469230E94DA06A7
:1047C000CDB7DEB7E1E10C94C130D0E0FE01EE0FD1
:1047D000FF1FE45EFB4F80819181889ED001899EFE
:1047E000B00D1124AC51BC4F14962C91149721118B
:1047F00058C050908303E4E8F3E030E020E0712CEF
:104800005D01251508F04BC0E284F384D501CD90FD
:10481000DC906FEF7FEF612C462D50E0DA01AA0F9C
:10482000BB1FAC0DBD1D0D90BC91A02D109731F09C
:10483000EA16FB0609F4BA016394EECF6F3F7607E0
:10484000A9F1D80102C0AA0FBB1F6A95E2F77A2A24
:10485000B801062C02C0660F771F0A94E2F7AB017D
:104860004150510974161506F9F4329EF001339E39
:10487000F00D1124EC57FC4F889ED001899EB00D9D
:104880001124AC51BC4F12962D913C911397378354
:104890002683908291829187808715964C920E9400
:1048A000AC062196C37084CF148213822F5F3F4FD2
:1048B0003C96A7CFA9E1B0E0E0E6F4E20C94A43086
:1048C000942F498B252F5A8B6B8B7C8B8D8B4C892E
:1048D0005D89622F892F0E94A106811109C08091F4
:1048E000560190915701019690935701809356017C
:1048F0008B89811110924C051D861E861F86188A91
:1049000085E0FE017196DE01199601900D928A955F
:10491000E1F78091360382FF1EC080915A03909187
:104920005B03892BC1F00E94FD052091AC01309101
:10493000AD01821B930B20915A0330915B038217C8
:10494000930720F08091AE0182FFE2C10E947D09B1
:1049500081110E9443094C855D856A8589850E9485
:10496000A106811111C061E0CE0109960E94A90B38
:104970006C018B8527EFC2162CE5D20681F48823C3
:1049800021F181E08093120129853A854B855C8570
:104990006D857E858F8598890E94FB22C6C038EF81
:1049A000C3163CE5D30629F4882379F00E94B72387
:1049B000EBCF49EFC4164CE5D40639F4882329F02F
:1049C000809112018111F2CFDCCF04EE13E0512C63
:1049D000B12CA12C22242394312C2EEF422EF8014D
:1049E0004081518188248A94982C20E0822F90E085
:1049F000FC01EE0FFF1FE40FF51F6081718161154F
:104A0000710531F0C616D70609F44C012F5FEECFC1
:104A1000F12CFFEF8F169F0609F449C0F80144817D
:104A2000F09012018F2D411180E0F82FF170FF2ED0
:104A3000F801E58086819B85992309F4F8C0FF2061
:104A400009F4F5C060906E0370906F03E11013C01D
:104A5000A101082C01C0440F0A94EAF7842B868335
:104A600080918003909181038615970520F47092C0
:104A7000810360928003C10102C0880F991F2A95AB
:104A8000E2F70197F80126812817190681F4809131
:104A9000260490912704009709F44BC00E94E20578
:104AA0006816790608F045C021E0F80124835F28E4
:104AB000FFEFAF1ABF0A095F1F4F28E0A216B1042B
:104AC00009F08DCF8B85882309F40DC1552009F499
:104AD0000AC10E94FD0590932704809326048091CB
:104AE0008303883010F591E0980F9093830398E04A
:104AF000FE013996DE01119601900D929A95E1F72B
:104B00003CE0839FC00111248C579C4F28E0FE019C
:104B10003196DC0101900D922A95E1F72FEF3FEFDE
:104B2000FC0131872087D386C2866996E2E10C9426
:104B3000C0308091240450912504982FF0E0E0E0EB
:104B4000851314C090932404E017F10709F4AFCF44
:104B500090E0FC01EE0FFF1FE45EFB4FB182A082EC
:104B600001968370992780932504A1CF682E712C1C
:104B7000F301EE0FFF1FE45EFB4F2081318147E020
:104B8000429FD001439FB00D1124AC51BC4F6D9199
:104B90007C911197798F688F40E020E030E0E32F1F
:104BA000F0E0EE0FFF1F688D798DE60FF71F808014
:104BB000918081149104E1F0F8010190F081E02DE1
:104BC000FF8BEE8B20E005C08616970609F44F2D6B
:104BD0002F5FE22FF0E0EE0FFF1F6E897F89E60F57
:104BE000F71F608171816115710571F73F5FD7CF44
:104BF0004423D1F0F801231708F0FD0121E02483BC
:104C00000E171F0721F490932404F42E50CF98130D
:104C100005C0AE17BF0711F49F5F937093012F5F1C
:104C20003F4F822F83708CCFF0E0E0E0F7CF90E031
:104C3000E11020C0B10102C0660F771F2A95E2F78C
:104C40009B01215031098217930731F4442309F461
:104C500048C0C5010E94AC06C101082C01C0880FE4
:104C60000A94EAF7982F9095F80186818923868324
:104C7000FE2C1DCF9C01082C02C0359527950A9467
:104C8000E2F7A90141705527BC01615071098623E3
:104C90009723892B11F5452B01F1F801828193812E
:104CA000892BC1F01B821C821D821E8249824A828E
:104CB0000E94FD058160582F9D838C83F8018281BD
:104CC00093818F83988729813A814B816D817E8181
:104CD0000E94FB22F8011582BFCFF22FF170EF2E58
:104CE000BBCFEF2CB9CF9091240480912504981765
:104CF00031F00E94C623552009F446CE16CF0E94FB
:104D0000692310922704109226040E94DA06F3CF3A
:104D100082E00E943C131ACEA5E0B0E0E2E9F6E2A0
:104D20000C94B4309093320380933103811520E2C8
:104D3000920730F40E9467142596E2E00C94D0307C
:104D400080EF89838A831B820E94FD058160782F12
:104D50009D838C8349815A816B818D810E945A2465
:104D6000EBCF0F931F93CF93DF938C01EB016CED8F
:104D700071E08C2F0E94890C892BA1F4809176031D
:104D8000909177030E94B10ADD27CC52DE4F8881D3
:104D9000F801128218828330F1F048F4813059F022
:104DA000823081F0DF91CF911F910F91089584306F
:104DB000B9F08530B9F78091DC019091DD01009761
:104DC00089F306C08091DE019091DF01009799F38D
:104DD0000E948C26E7CF8091E0019091E101F6CF0F
:104DE0008091E2019091E301009791F72091DC011D
:104DF0003091DD018091DE019091DF0121153105B7
:104E0000F1F2009729F7C901E3CFA5E0B0E0EBE0AC
:104E1000F7E20C94B4309093320380933103811500
:104E200020E2920730F40E94D5152596E2E00C941A
:104E3000D03080EF89838A8381E08B830E94FD05D7
:104E40008160782F9D838C8349815A816B818D810C
:104E50000E945A24EACFCF93DF93EC010E940527EA
:104E600080917603909177030E94B10ACE010E944F
:104E70008C26DF91CF9108950F931F93CF93DF93EB
:104E80008C01862F6CED71E00E94890C892BB1F4A6
:104E9000C091DC01D091DD01209781F0F801828181
:104EA000833051F4CE010E942B27CE010E942B2784
:104EB000CE010E942B2702C08430D0F7DF91CF9122
:104EC0001F910F9108950F931F93CF93DF938C0140
:104ED000EB016CED71E08C2F0E94890C892B09F09D
:104EE0005CC0FE01FF27D80112968C911297EC52FC
:104EF000FE4F8130B9F415969C9192FF02C08083D9
:104F00000AC090FFFCCF82E080838091DE01909107
:104F1000DF010097B9F48091DC019091DD010097E9
:104F2000E1F110C08230B9F515968C9182FD28C050
:104F300080FD0BC083E080838091E0019091E101CE
:104F4000009701F10E94052728C084E080838091AA
:104F5000E2019091E3010097A9F78091DC01909123
:104F6000DD010097F9F00E942B278091DE019091DE
:104F7000DF01009739F78091DC019091DD01E2CFEC
:104F800085E080838091DC019091DD01009729F01C
:104F90000E942B27F0CF86E08083DF91CF911F9175
:104FA0000F9108958091DE019091DF01B8CF1F929B
:104FB0000F920FB60F9211242F933F934F935F934D
:104FC0006F937F938F939F93AF93BF93CF93DF9311
:104FD000EF93FF93D091E900DF708091EC00C82F30
:104FE000C17080FDC0E81092E9008091F000877FD9
:104FF0008093F00078940E94E10E1092E900809175
:10500000F00088608093F000CD2BCF70C093E90052
:10501000FF91EF91DF91CF91BF91AF919F918F91D0
:105020007F916F915F914F913F912F910F900FBEA4
:105030000F901F9018951F920F920FB60F92112488
:105040002F933F934F935F936F937F938F939F9390
:10505000AF93BF93EF93FF938091E10082FF09C06C
:105060008091E20082FF05C08091E1008B7F8093F8
:10507000E1008091DA0080FF24C08091D80080FF99
:1050800020C08091DA008E7F8093DA008091D90071
:1050900080FF9DC080E189BD82E189BD09B400FE29
:1050A000FDCF81E08093540480914704811109C0B1
:1050B0000E942A030E941F048091E2008460809372
:1050C000E2008091E10080FF17C08091E20080FF44
:1050D00013C08091E2008E7F8093E2008091E20015
:1050E00080618093E2008091D80080628093D80034
:1050F00019BC85E0809354048091E10084FF2BC0AB
:105100008091E20084FF27C080E189BD82E189BDF2
:1051100089B5982F917080FFFBCF8091D8008F7D4B
:105120008093D8008091E1008F7E8093E100809190
:10513000E2008F7E8093E2008091E20081608093A4
:10514000E20080915504882309F447C084E08093ED
:105150005404809154048091E10083FF27C0809122
:10516000E20083FF23C08091E100877F8093E1000C
:1051700082E080935404109255048091E1008E7F68
:105180008093E1008091E2008E7F8093E200809125
:10519000E20080618093E20042E060E080E00E94F3
:1051A000ED038091F00088608093F000FF91EF9113
:1051B000BF91AF919F918F917F916F915F914F912F
:1051C0003F912F910F900FBE0F901F90189519BC13
:1051D000109254041092470474CF8091E30087FD2D
:1051E00093E090935404B5CF78941F921FB61F920A
:1051F00011248F939F93AF93BF9380914304909119
:105200004404A0914504B09146040196A11DB11D2E
:105210008093430490934404A0934504B0934604C0
:10522000BF91AF919F918F911F901FBE1F901895B6
:105230001F921FB61F9211248F939F93AF93BF931A
:1052400080914204811113C08091430490914404E1
:10525000A0914504B09146044196A11DB11D8093D3
:10526000430490934404A0934504B0934604BF9133
:10527000AF919F918F911F901FBE1F901895CDB732
:10528000DEB7EC970FB6F894DEBF0FBECDBF85B783
:10529000806885BF85B7806885BF109283041092AF
:1052A00085041092840480EC8093480586E894E09D
:1052B00090934A0580934905109247051092460540
:1052C00010926304109262041092650410926404B8
:1052D0001092670410926604109269041092680498
:1052E00010926B0410926A0410926D0410926C0478
:1052F00010926F0410926E04109271041092700458
:105300001092730410927204109275041092740437
:105310001092770410927604109279041092780417
:1053200010927D0410927C0482E895E090935F04D3
:1053300080935E0484E095E090937F0480937E04E4
:1053400080EE94E090937B0480937A048FED94E058
:10535000909361048093600484B7877F84BF0FB605
:10536000F894A89580916000886180936000109205
:1053700060000FBE80E890E00FB6F8948093610063
:10538000909361000FBE83E997E090934901809369
:1053900048010E946E070E94470D0E94BB0C0E94AC
:1053A000BB0A0E942A030E941F048091E2008460CD
:1053B0008093E2007894809154048823A1F01091A6
:1053C000E9001F709091EC00892F817090FD80E8BA
:1053D000182B1092E9008091E80083FD0E94E10EF5
:1053E0001F701093E90082E084BD93E095BD9AEFB1
:1053F00097BD80936E000E94B70B811102C00E947E
:105400007D1228E231E061E070E0D90150E040E037
:105410008D918F3F91F0E82FE295EF70F0E0F1A0D1
:105420008F708B0101C0000F8A95EAF7902F90953D
:105430009F2191A382A1802B82A34F5F5F4F4830B1
:10544000510531F7285F3F4F41E028333407E9F633
:105450001092D3011092D2011092BF011092BE019E
:1054600090E080E00E941931883E9E4F21F40E9416
:10547000B70B811102C00E94BA1682E090E00E9430
:1054800011318093C2010E94D00B90933603809318
:1054900035030E948B0DBFEFE6E7F1E0B150E0402D
:1054A000F040E1F700C000000E948B0D8091D20116
:1054B00080FF08C06FEF7FEF90E080E00E943D31F9
:1054C0000E94D10583E090E00E9411310E94901368
:1054D00081E091E0909341048093400458E1652E6F
:1054E000712C60E4562E73E0A72EB12CCC24C3940B
:1054F000D12C8091540410E102E1853009F4B0C14F
:105500000E948B0D9091C3018091D2019813B2C17A
:105510009091C4018091D3019813ACC10E94FD0504
:105520008C018091C0019091C10108171907A1F069
:105530008FEF8BAB8CAB1DAA0E94FD058160782F8D
:105540009FAB8EAB4BA95CA96DA98FA90E945A2471
:105550001093C1010093C0018091370490913804E9
:10556000892B09F43EC040912C0450912D04609188
:105570002E0470912F042FB7F894809143049091DA
:105580004404A0914504B09146042FBF841B950BA1
:10559000A60BB70B409128045091290460912A046E
:1055A00070912B0484179507A607B707D0F0809158
:1055B0003704909138040E94D51510923804109247
:1055C000370410922C0410922D0410922E04109285
:1055D0002F04109228041092290410922A04109289
:1055E0002B04E0903E04F0903F04E114F10429F113
:1055F0008091C5019091C6010E94E2058C01BE0117
:10560000655D7F4F88E0DB011D928A95E9F7C70150
:105610000E949D0C8017910780F480913E04BEE0AB
:105620008B9FC0011124FC01E551FE4F208122FD1A
:1056300004C08A519E4F0E948C0E809112018823D3
:1056400001F180912604909127040097D1F00E94E7
:10565000E20520918003309181032817390788F4EF
:105660009091240480912504981709F43EC10E946A
:10567000C623109281031092800310922704109287
:1056800026048091730380FF1EC08091110182FF68
:105690001AC00E94FD0520917C0330917D03AC016E
:1056A000421B530B20910F013091100142175307F9
:1056B00050F027EC31E041E0BC0180917E039091F5
:1056C0007F030E940216E0917E04F0917F043097E0
:1056D00019F08EE594E009959FB7F894009147057D
:1056E00080914605081708F409C1081B9FBFF12CDB
:1056F000E12C10E034E0432E33243394E016F1061D
:1057000008F400C10E9423069091CF01891721F06F
:105710008093CF010E94F105809154048430E1F41C
:10572000809114018F708093E9009091E80090FFC0
:1057300013C090915404943079F48093E9009091CF
:10574000F3008091F200892B39F08091E8008E7788
:105750008093E8000E94490380915404843009F04A
:10576000C8CE83E08093E9008091E80082FFC1CE3B
:105770008091E80090E085FF09C050E040E060E2E1
:1057800070E0CE0101960E94A40391E08091E800B0
:105790008B778093E800992309F4ABCE0091330313
:1057A0001091340389810115110509F460C18E3F00
:1057B00009F09FC18A81833020F08550833008F042
:1057C00098C1EA81EE3008F094C1F0E0ED58FE4C4B
:1057D0000C94973080915404843009F11092420463
:1057E0000FB6F894A895609260000FBE50926000CA
:1057F00083B7817F846083BF83B7816083BF7894E0
:10580000889583B78E7F83BF0FB6F894A895809153
:105810006000886180936000109260000FBE8091EC
:1058200053048823E9F00E948B0D8091D20190915E
:10583000D301892BA9F019BD09BD09B400FEFDCF24
:105840008091D8008F7D8093D8008091E0008260A5
:105850008093E0008091E00081FDFCCF0E94D30E98
:1058600080915404853009F4B5CF0E94D30E0E9474
:10587000230646CE02ED11E043ECE42E41E0F42E87
:10588000212CD8019D908D01F70131907F013914B1
:1058900019F13924812C44244394832D8421A1F0CF
:1058A00088AE29AE91E0892D842109F490E09AAF69
:1058B0000E94FD058160782F9CAF8BAF48AD59AD3C
:1058C0006AAD8CAD0E945A248394440CF8E08F1288
:1058D000E4CFF7013197908221E0221203C00E94A9
:1058E000F1053ACE22242394CCCF0E946923109252
:1058F0002704109226040E94DA06C3CE20914805A0
:10590000020FF3CE8091460590E06091480570E06B
:105910000E9483302091490530914A05280F391F94
:10592000F901908080908304F7EFF915E8F4309244
:10593000830420E040E0692D81E090E00E9447026E
:10594000809283042FB7F8948091460590E00196E9
:105950006091480570E00E948330809346052FBF18
:10596000BFEFEB1AFB0ACACE97FE52C024E08216A4
:1059700031F090928004D0928504C0928404892DE5
:105980000E94E104813069F08823D1F08230A9F0CF
:10599000833099F01092830410928504109284044D
:1059A000D1CF8093830420E040E0692D81E090E036
:1059B0000E94470210928304C5CF80938304C2CF14
:1059C00030EF9316E1F047EF9412E4CF2091840476
:1059D00030918504C901B5010E946F30FC01E25A83
:1059E000FB4F92A2C9010196909385048093840491
:1059F000209182044091810460918004D9CF40922B
:105A0000830490928004D0928504C09284049ACF3B
:105A1000882009F497CF2091840430918504C9012E
:105A2000B5010E946F30AC01FC01E25AFB4F92A21B
:105A3000C9010196909385048093840441305105F7
:105A400089F04230510509F07DCF209182044091C8
:105A50008104609180040E94470280918304843015
:105A600091F670CFA2E020E08A126CCFF0CF8D309B
:105A700009F49BC0B0F4843009F47EC040F4823055
:105A800041F108F06AC0813001F18FEF00C3863028
:105A900009F488C008F47BC08C30B9F780E18A83B0
:105AA00028C0813109F4DDC040F48F3009F4ACC066
:105AB00008F47FC00E942B0C1CC0833109F4FDC088
:105AC00008F4D1C08E3F09F77CCE1A8289E08B831F
:105AD00010C08A81823009F4F9C2833089F18130A3
